S01000006E6F7669323031342E7372656391
S11300000C9452000C9471000C9471000C947100C7
S11300100C9471000C9471000C9471000C94710098
S11300200C9471000C9471000C9471000C94710088
S11300300C94690E0C9471000C9471000C94710072
S11300400C9471000C9471000C9473000C94710066
S11300500C9471000C94EE0E0C9471000C94AD0E83
S11300600C9471000C9471000C9471000C94710048
S11300700C949D0E0C9471000C9471000C947100FE
S11300800C94770F0C9471000C94360F0C9471003F
S11300900C947100D007D007C409E803DC05DC0523
S11300A00101010011241FBECFEFD0E1DEBFCDBF9F
S11300B011E0A0E0B1E0EAEEF3E200E00BBF02C021
S11300C007900D92A630B107D9F712E0A6E0B1E08F
S11300D001C01D92AF36B107E1F70E94B4070C943A
S11300E0F3110C9400001F920F920FB60F92009020
S11300F05B000F9211242F933F934F935F938F9341
S11301009F93AF93BF93EF93FF93DF93CF9300D06D
S113011000D0CDB7DEB7EDEEF0E080818C831B829A
S11301209CC0EDEEF0E08B818295807F8083EEEEC3
S1130130F0E08081829586958770882F90E08170A9
S11301409070882309F46EC0EFEEF0E080E88083BD
S1130150AEEEB0E0EEEEF0E080818F7D8C93E2EFC6
S1130160F0E08081829586958770282FE3EFF0E098
S11301708081882F90E0880F991F880F991F880F1E
S1130180991F822B8A8319822AC08A81282F30E002
S113019081E090E0821B930B880F991F90958195C5
S11301A09F4FFC01E55FFE4F408151818A81882F7A
S11301B090E00197FC01E15EFE4F8081282F30E042
S11301C08981882F90E0820F931FDA01A80FB91F4D
S11301D0EAEFF0E080818C9389818F5F8983898144
S11301E0883098F28A81882F90E00197FC01E15EC3
S11301F0FE4F80818F5F80838081853041F48A81C6
S1130200882F90E00197FC01E15EFE4F10828A8105
S1130210882F90E00197FC01ED5CFE4F80818F5F99
S113022080831FC0EEEEF0E08081829586958695EE
S11302308370882F90E081709070882359F0EFEEDE
S1130240F0E01082AEEEB0E0EEEEF0E080818F7B65
S11302508C9307C08B818F5F8B838B818F3008F4E5
S113026060CFEDEEF0E08C818083AAEDB0E0EAEDA2
S1130270F0E080818C930F900F900F900F90CF91AE
S1130280DF91FF91EF91BF91AF919F918F915F911A
S11302904F913F912F910F9000925B000F900FBEF2
S11302A00F901F901895DF93CF9300D0CDB7DEB792
S11302B0E8EDF0E081E080831A8232C0EDEEF0E0F8
S11302C08A818295807F8083EEEEF0E01082EFEEEB
S11302D0F0E01082E3EFF0E01082E2EFF0E0108251
S11302E0E1EFF0E01082E0EFF0E01082E7EFF0E001
S11302F01082E6EFF0E01082E5EFF0E01082E4EF28
S1130300F0E01082198206C0EAEFF0E010828981E1
S11303108F5F898389818830B8F38A818F5F8A836C
S11303208A818F3058F2E8EDF0E082E08083E2EEDB
S1130330F0E081E08083E3EEF0E088E08083E4EEA7
S1130340F0E08EE58083E5EEF0E01082EBEDF0E086
S113035080EB8083EFEDF0E08FE78083EEEDF0E05B
S11303608FEF808378940F900F90CF91DF91089551
S1130370DF93CF9300D000D00F92CDB7DEB79C832C
S11303808B83EDEEF0E080818983E9EDF0E08081FC
S113039082958F70882F90E0817090708823A9F7E0
S11303A0E9EDF0E08081869586958695882F90E02A
S11303B081709070882349F71A823FC0EDEEF0E017
S11303C08A818295807F8083EFEEF0E08081829540
S11303D0869586958370882369F5EFEEF0E08FE0CB
S11303E08083E3EFF0E08B819C81907096958795F4
S11303F096958795969587958083E2EFF0E08B81BB
S11304008295880F807E8083E6EFF0E080EE808323
S1130410E7EFF0E08FEF8083AFEEB0E0EFEEF0E0D7
S1130420808180688C93EDEEF0E08981808381E0A7
S11304308D830CC08A818F5F8A838A818F3008F410
S1130440BDCFEDEEF0E0898180831D828D810F9018
S11304500F900F900F900F90CF91DF9108950F930D
S11304601F93DF93CF9300D0CDB7DEB78A830E946A
S113047053010E94480E198237C08981882F90E069
S113048001960E94B8018981882F90E0880F991FF6
S11304908C01055F1E4F85E090E061E070E00E94F2
S11304A0CB10F801918380838981482F50E08981A2
S11304B0282F30E08981882F90E0FC01ED5CFE4F0D
S11304C01082FC01ED5CFE4F8081F901E75DFE4F77
S11304D08083F901E75DFE4F8081FA01E15EFE4F02
S11304E0808389818F5F898399818A81981728F213
S11304F00F900F90CF91DF911F910F910895DF938B
S1130500CF930F92CDB7DEB789838981882F90E08E
S11305100197FC01ED5CFE4F80810F90CF91DF913C
S11305200895DF93CF93CDB7DEB780910A01882376
S113053099F08091060190910701A0910801B09172
S113054009010196A11DB11D809306019093070135
S1130550A0930801B0930901CF91DF910895DF932F
S1130560CF9300D000D00F92CDB7DEB769837A83E2
S11305708B839C83209106013091070140910801EF
S1130580509109011D8289819A81AB81BC818217B6
S11305909307A407B50714F481E08D838D810F9030
S11305A00F900F900F900F90CF91DF910895DF93EC
S11305B0CF93CDB7DEB729970FB6F894DEBF0FBE41
S11305C0CDBF9B838A836C832D833E834F8358875F
S11305D0109206011092070110920801109209016D
S11305E08D819E81AF81B8850097A105B105C9F0C1
S11305F081E080930A0115C08D819E81AF81B88509
S11306000097A105B10569F08D819E81AF81B88500
S1130610BC01CD010E94AF02882319F08FEF8987B6
S113062066C08C81882F90E00197FC01ED5CFE4F41
S11306308081882309F310920A01198230C08981CC
S1130640282F30E08A819B81DC01A20FB31F8C81AB
S1130650282F30E081E090E0821B930B880F991FD4
S1130660909581959F4FFC01E55FFE4F408151813C
S11306708C81882F90E00197FC01E75DFE4F80811B
S1130680282F30E08981882F90E0820F931FFA0190
S1130690E80FF91F80818C9389818F5F8983898119
S11306A0883068F28C81882F90E00197FC01E75D27
S11306B0FE4F80818F5F80838081853041F48C81FF
S11306C0882F90E00197FC01E75DFE4F10828C813A
S11306D0882F90E09C0121503040F901ED5CFE4FE1
S11306E080818150F901ED5CFE4F808319868985F4
S11306F029960FB6F894DEBF0FBECDBFCF91DF9120
S11307000895DF93CF93CDB7DEB727970FB6F8944C
S1130710DEBF0FBECDBF9D838C836E83E9EDF0E019
S1130720808182958F70882F90E0817090708823EB
S1130730A9F7E9EDF0E08081869586958695882F66
S113074090E081709070882349F7EDEEF0E08081AD
S11307508A831B8212C0EDEEF0E08B818295807F4C
S11307608083EFEEF0E08081829586958695837094
S1130770882331F08B818F5F8B838B818F3058F38B
S11307808B818F3019F48FEF8F8332C0E2EFF0E06A
S11307908E818295880F807E8083E3EFF0E08E81E6
S11307A08695869586958083EFEEF0E088E08083D9
S11307B019820FC0AAEFB0E08981282F30E08C8124
S11307C09D81FC01E20FF31F80818C9389818F5FEF
S11307D089838981883070F3AFEEB0E0EFEEF0E00A
S11307E0808180648C93EDEEF0E08A8180831F82A7
S11307F08F8127960FB6F894DEBF0FBECDBFCF9181
S1130800DF9108950F931F93DF93CF93CDB7DEB796
S1130810AD970FB6F894DEBF0FBECDBF1BA61AA6C8
S113082019A618A688EE93E068EE73E040E050E065
S11308300E94EC0C8AA59BA59DA78CA78CA59DA5C1
S1130840009739F08CA59DA58130910509F450C01D
S1130850F1CF88A589A748C089A5882F90E0880F83
S1130860991F8C569F4F9FA38EA38EA19FA1FC011D
S1130870859194919DA38CA3FFA3EEA36CA17DA16C
S113088089A5882F90E0880F991F86569F4F9BA3B8
S11308908AA38AA19BA1FC018591949199A388A321
S11308A0FBA3EAA348A159A189A5882F90E080560B
S11308B09F4F9F8F8E8FEE8DFF8D84918D8F8D8DA9
S11308C0282FCB01BA0148E703E010E00E94C609D3
S11308D0823039F489A588A781E090E09BA78AA794
S11308E007C089A58F5F89A789A5833008F4B4CF91
S11308F088A5882309F09ECF80E090E0AAEFB3E4B6
S1130900898F9A8FAB8FBC8F698D7A8D8B8D9C8DDF
S113091020E030E44CE155E40E946810DC01CB0196
S11309208D8B9E8BAF8BB88F6D897E898F89988DC7
S113093020E030E040E85FE30E94BF0F88232CF4FE
S113094081E090E09C8B8B8B3FC06D897E898F8981
S1130950988D20E03FEF4FE757E40E94641018168B
S11309604CF5698D7A8D8B8D9C8D20E030E040E2D2
S113097051E40E946810DC01CB01BC01CD010E944E
S1130980C30FDC01CB019C8B8B8B0FC08AEF90E0F3
S11309909A8B898B89899A890197F1F79A8B898B2C
S11309A08B899C8901979C8B8B8B8B899C89009765
S11309B069F714C06D897E898F89988D0E94C30F51
S11309C0DC01CB019C8B8B8B8B899C89988B8F87CB
S11309D08F8598890197F1F7988B8F871BA61AA6A4
S11309E080E090E0AAE7B4E48B879C87AD87BE875C
S11309F06B857C858D859E8520E030E44CE155E453
S1130A000E946810DC01CB018F839887A987BA877D
S1130A106F81788589859A8520E030E040E85FE33E
S1130A200E94BF0F88232CF481E090E09E838D8385
S1130A303FC06F81788589859A8520E03FEF4FE735
S1130A4057E40E94641018164CF56B857C858D85DF
S1130A509E8520E030E040E251E40E946810DC0111
S1130A60CB01BC01CD010E94C30FDC01CB019E83ED
S1130A708D830FC08AEF90E09C838B838B819C8154
S1130A800197F1F79C838B838D819E8101979E83CF
S1130A908D838D819E81009769F7CCCE6F81788597
S1130AA089859A850E94C30FDC01CB019E838D83C7
S1130AB08D819E819A83898389819A810197F1F737
S1130AC09A838983B7CEDF93CF9300D0CDB7DEB7B7
S1130AD010923E0173C110923D0166C180913E01A6
S1130AE0282F30E03A83298389819A8185309105C2
S1130AF009F4B2C029813A8126303105F4F48981A0
S1130B009A818230910509F458C029813A812330B1
S1130B10310534F489819A818130910599F13FC17D
S1130B2029813A812330310509F462C089819A818F
S1130B308430910509F477C032C129813A81283083
S1130B40310509F4DDC089819A81893091056CF4FD
S1130B5029813A812630310509F49BC089819A8123
S1130B608730910509F4B0C01AC129813A8129302E
S1130B70310509F4DFC089819A818A30910509F42D
S1130B80F2C00DC180913E01282F30E080913D01DB
S1130B90482F50E0E0E2F0E0808182958F70682F6A
S1130BA06170C901880F991F820F931F840F951FCD
S1130BB0FC01E15CFE4F6083F2C080913E01282F6E
S1130BC030E080913D01482F50E0E0E2F0E0808188
S1130BD0682F661F6627661FC901880F991F820F39
S1130BE0931F840F951FFC01E15CFE4F6083D7C007
S1130BF080913E01282F30E080913D01482F50E044
S1130C00ECE2F0E0808182958F70682F6170C901F9
S1130C10880F991F820F931F840F951FFC01E15CBD
S1130C20FE4F6083BCC080913E01282F30E080914C
S1130C303D01482F50E0E3E2F0E08081682F6170CD
S1130C40C901880F991F820F931F840F951FFC0100
S1130C50E15CFE4F6083A3C080913E01282F30E009
S1130C6080913D01482F50E0E0E2F0E080818295E0
S1130C70869586958370682F6170C901880F991FC6
S1130C80820F931F840F951FFC01E15CFE4F60836C
S1130C9086C080913E01282F30E080913D01482F8D
S1130CA050E0ECE2F0E0808186958695682F6170D3
S1130CB0C901880F991F820F931F840F951FFC0190
S1130CC0E15CFE4F60836BC080913E01282F30E0D1
S1130CD080913D01482F50E0ECE2F0E08081829564
S1130CE086958770682F6170C901880F991F820FDC
S1130CF0931F840F951FFC01E15CFE4F60834FC07E
S1130D0080913E01282F30E080913D01482F50E032
S1130D10E0E2F0E080818695682F6170C901880F58
S1130D20991F820F931F840F951FFC01E15CFE4FF6
S1130D30608335C080913E01282F30E080913D01D1
S1130D40482F50E0E0E2F0E08081682F6170C90133
S1130D50880F991F820F931F840F951FFC01E15C7C
S1130D60FE4F60831CC080913E01282F30E08091AB
S1130D703D01482F50E0ECE2F0E0808182958695B9
S1130D8086958370682F6170C901880F991F820F3F
S1130D90931F840F951FFC01E15CFE4F60838091DB
S1130DA03D018F5F80933D0180913D01833008F4C4
S1130DB095CE80913E018F5F80933E0180913E01EC
S1130DC08A3008F488CE0F900F90CF91DF91089568
S1130DD0DF93CF9300D0CDB7DEB782E080933E019E
S1130DE035C080913E01282F30E0C901880F991F3A
S1130DF0820F931FFC01E15CFE4F408180913E0114
S1130E00282F30E0C901880F991F820F931FFC011E
S1130E10E05CFE4F8081482B80913E01282F30E01A
S1130E20C901880F991F820F931FFC01EF5BFE4FCE
S1130E308081842B882329F081E090E09A83898340
S1130E400BC080913E018F5F80933E0180913E01F3
S1130E50843038F21A82198289819A810F900F9016
S1130E60CF91DF910895DF93CF9300D0CDB7DEB754
S1130E7085E080933E0135C080913E01282F30E00B
S1130E80C901880F991F820F931FFC01E15CFE4F7B
S1130E90408180913E01282F30E0C901880F991FBD
S1130EA0820F931FFC01E05CFE4F8081482B8091F0
S1130EB03E01282F30E0C901880F991F820F931F2C
S1130EC0FC01EF5BFE4F8081842B882329F081E0B5
S1130ED090E09A8389830BC080913E018F5F809359
S1130EE03E0180913E01873038F21A82198289814D
S1130EF09A810F900F90CF91DF910895DF93CF9354
S1130F0000D000D000D0CDB7DEB79A838983898121
S1130F109A81009751F40E94E80681309105A1F46A
S1130F2081E090E09C838B8310C089819A81813019
S1130F30910551F40E9433078130910529F481E031
S1130F4090E09C838B8301C004C08B819C819E8331
S1130F508D838D819E8126960FB6F894DEBF0FBED9
S1130F60CDBFCF91DF910895DF93CF93CDB7DEB797
S1130F706C970FB6F894DEBF0FBECDBF80E090E053
S1130F80A8ECB2E4898F9A8FAB8FBC8F698D7A8D70
S1130F908B8D9C8D20E030E44CE155E40E94681078
S1130FA0DC01CB018D8B9E8BAF8BB88F6D897E89D5
S1130FB08F89988D20E030E040E85FE30E94BF0F06
S1130FC088232CF481E090E09C8B8B8B3FC06D894F
S1130FD07E898F89988D20E03FEF4FE757E40E9488
S1130FE0641018164CF5698D7A8D8B8D9C8D20E0DC
S1130FF030E040E251E40E946810DC01CB01BC0106
S1131000CD010E94C30FDC01CB019C8B8B8B0FC0E5
S11310108AEF90E09A8B898B89899A890197F1F7F5
S11310209A8B898B8B899C8901979C8B8B8B8B8961
S11310309C89009769F714C06D897E898F89988D82
S11310400E94C30FDC01CB019C8B8B8B8B899C8909
S1131050988B8F878F8598890197F1F7988B8F8765
S11310600E94050E80E090E8ABEBB4E48B879C878C
S1131070AD87BE876B857C858D859E8520E030E4B9
S11310804CE155E40E946810DC01CB018F83988702
S1131090A987BA876F81788589859A8520E030E0B1
S11310A040E85FE30E94BF0F88232CF481E090E0C6
S11310B09E838D833FC06F81788589859A8520E0E2
S11310C03FEF4FE757E40E94641018164CF56B8508
S11310D07C858D859E8520E030E040E251E40E94CD
S11310E06810DC01CB01BC01CD010E94C30FDC01FF
S11310F0CB019E838D830FC08AEF90E09C838B830A
S11311008B819C810197F1F79C838B838D819E81D8
S113111001979E838D838D819E81009769F714C00A
S11311206F81788589859A850E94C30FDC01CB0184
S11311309E838D838D819E819A83898389819A81FF
S11311400197F1F79A8389830E940204FFCFDF930A
S1131150CF93CDB7DEB766970FB6F894DEBF0FBE58
S1131160CDBF83E58F87CE010F9663EC0E94810388
S11311708823C9F780E090E0A8E4B2E48B879C87D9
S1131180AD87BE876B857C858D859E8520E030E4A8
S11311904CE155E40E946810DC01CB018F839887F1
S11311A0A987BA876F81788589859A8520E030E0A0
S11311B040E85FE30E94BF0F88232CF481E090E0B5
S11311C09E838D833FC06F81788589859A8520E0D1
S11311D03FEF4FE757E40E94641018164CF56B85F7
S11311E07C858D859E8520E030E040E251E40E94BC
S11311F06810DC01CB01BC01CD010E94C30FDC01EE
S1131200CB019E838D830FC08AEF90E09C838B83F8
S11312108B819C810197F1F79C838B838D819E81C7
S113122001979E838D838D819E81009769F714C0F9
S11312306F81788589859A850E94C30FDC01CB0173
S11312409E838D838D819E819A83898389819A81EE
S11312500197F1F79A83898366960FB6F894DEBFF7
S11312600FBECDBFCF91DF910895DF93CF93CDB75C
S1131270DEB767970FB6F894DEBF0FBECDBF8F8B76
S113128086E58F878F89888BCE010F9663EC0E9449
S113129081038823C9F780E090E0A8E4B2E48B8757
S11312A09C87AD87BE876B857C858D859E8520E078
S11312B030E44CE155E40E946810DC01CB018F83DB
S11312C09887A987BA876F81788589859A8520E070
S11312D030E040E85FE30E94BF0F88232CF481E0F4
S11312E090E09E838D833FC06F81788589859A8540
S11312F020E03FEF4FE757E40E94641018164CF5C6
S11313006B857C858D859E8520E030E040E251E44C
S11313100E946810DC01CB01BC01CD010E94C30F07
S1131320DC01CB019E838D830FC08AEF90E09C8308
S11313308B838B819C810197F1F79C838B838D81B7
S11313409E8101979E838D838D819E81009769F78D
S113135014C06F81788589859A850E94C30FDC014A
S1131360CB019E838D838D819E819A83898389811C
S11313709A810197F1F79A83898367960FB6F89457
S1131380DEBF0FBECDBFCF91DF9108950F931F93A2
S1131390DF93CF93CDB7DEB7C755D0400FB6F894DF
S11313A0DEBF0FBECDBFFE01E15BFF4F91838083A3
S11313B0FE01EF5AFF4F71836083FE01ED5AFF4F28
S11313C04083FE01EC5AFF4F2083FE01EB5AFF4F8E
S11313D011830083FE01ED5AFF4F80810E9435097D
S11313E0FE01E95BFF4F87E48083FE01E15BFF4F71
S11313F080819181892F9927FE01E95BFF4F8183C9
S1131400FE01E15BFF4F8081FE01E95BFF4F8283B8
S1131410FE01EF5AFF4F80819181892F9927FE01A8
S1131420E95BFF4F8383FE01EF5AFF4F8081FE018A
S1131430E95BFF4F8483FE01E95BFF4F1582FE01E8
S1131440EC5AFF4F8081FE01E95BFF4F8683CE019A
S1131450895B9F4F63EC0E9481038823C1F7FE01DF
S1131460ED5BFF4F80E090E0A0E2B1E480839183E4
S1131470A283B3838E01015C1F4FFE01ED5BFF4F1E
S1131480608171818281938120E030E44CE155E4F4
S11314900E946810DC01CB01F80180839183A28350
S11314A0B383FE01FF96608171818281938120E084
S11314B030E040E85FE30E94BF0F88232CF481E012
S11314C090E09EAF8DAF46C0FE01FF9660817181B2
S11314D08281938120E03FEF4FE757E40E9464103C
S11314E0181664F5FE01ED5BFF4F60817181828106
S11314F0938120E030E040E251E40E946810DC0176
S1131500CB01BC01CD010E94C30FDC01CB019EAF16
S11315108DAF0FC08AEF90E09CAF8BAF8BAD9CADCD
S11315200197F1F79CAF8BAF8DAD9EAD01979EAF48
S11315308DAF8DAD9EAD009769F716C0FE01FF9685
S113154060817181828193810E94C30FDC01CB0190
S11315509EAF8DAF8DAD9EAD9AAF89AF89AD9AAD7B
S11315600197F1F79AAF89AF80E090E0A0EFB2E481
S11315708DAB9EABAFABB8AF6DA97EA98FA998AD6B
S113158020E030E44CE155E40E946810DC01CB011A
S113159089AB9AABABABBCAB69A97AA98BA99CA963
S11315A020E030E040E85FE30E94BF0F88232CF482
S11315B081E090E098AB8FA73FC069A97AA98BA975
S11315C09CA920E03FEF4FE757E40E9464101816EF
S11315D04CF56DA97EA98FA998AD20E030E040E2DA
S11315E051E40E946810DC01CB01BC01CD010E94D2
S11315F0C30FDC01CB0198AB8FA70FC08AEF90E03B
S11316009EA78DA78DA59EA50197F1F79EA78DA7EF
S11316108FA598A9019798AB8FA78FA598A9009734
S113162069F714C069A97AA98BA99CA90E94C30F60
S1131630DC01CB0198AB8FA78FA598A99CA78BA79A
S11316408BA59CA50197F1F79CA78BA7FE01EB5AEC
S1131650FF4F808191818330910509F085C0FE019F
S1131660EC5AFF4F8081992787FD90950E947E0751
S1131670009709F479C00E94A70880E090E0A0E2F6
S1131680B1E48FA398A7A9A7BAA76FA178A589A544
S11316909AA520E030E44CE155E40E946810DC0196
S11316A0CB018BA39CA3ADA3BEA36BA17CA18DA1F5
S11316B09EA120E030E040E85FE30E94BF0F882352
S11316C02CF481E090E09AA389A33FC06BA17CA194
S11316D08DA19EA120E03FEF4FE757E40E946410E4
S11316E018164CF56FA178A589A59AA520E030E0DD
S11316F040E251E40E946810DC01CB01BC01CD0141
S11317000E94C30FDC01CB019AA389A30FC08AEF07
S113171090E098A38F8F8F8D98A10197F1F798A3EC
S11317208F8F89A19AA101979AA389A389A19AA1CC
S1131730009769F714C06BA17CA18DA19EA10E94A2
S1131740C30FDC01CB019AA389A389A19AA19E8F1F
S11317508D8F8D8D9E8D0197F1F79E8F8D8FF2E089
S11317606896FFAF689729C1FE01E95BFF4F80E5EA
S11317708083CE01895B9F4F63EC0E9481038823A1
S1131780C1F780E090E0A0E7B2E4898F9A8FAB8F35
S1131790BC8F698D7A8D8B8D9C8D20E030E44CE17B
S11317A055E40E946810DC01CB018D8B9E8BAF8BBE
S11317B0B88F6D897E898F89988D20E030E040E86C
S11317C05FE30E94BF0F88232CF481E090E09C8BA0
S11317D08B8B3FC06D897E898F89988D20E03FEF88
S11317E04FE757E40E94641018164CF5698D7A8D02
S11317F08B8D9C8D20E030E040E251E40E94681023
S1131800DC01CB01BC01CD010E94C30FDC01CB0183
S11318109C8B8B8B0FC08AEF90E09A8B898B898984
S11318209A890197F1F79A8B898B8B899C89019707
S11318309C8B8B8B8B899C89009769F7B7C06D89CA
S11318407E898F89988D0E94C30FDC01CB019C8B0C
S11318508B8B8B899C89988B8F878F85988901972F
S1131860F1F7988B8F87A2C080E090E0A0EAB0E403
S11318708B879C87AD87BE876B857C858D859E8590
S113188020E030E44CE155E40E946810DC01CB0117
S11318908F839887A987BA876F81788589859A8588
S11318A020E030E040E85FE30E94BF0F88232CF47F
S11318B081E090E09E838D833FC06F817885898528
S11318C09A8520E03FEF4FE757E40E946410181612
S11318D04CF56B857C858D859E8520E030E040E26B
S11318E051E40E946810DC01CB01BC01CD010E94CF
S11318F0C30FDC01CB019E838D830FC08AEF90E080
S11319009C838B838B819C810197F1F79C838B83D0
S11319108D819E8101979E838D838D819E81009709
S113192069F714C06F81788589859A850E94C30FF1
S1131930DC01CB019E838D838D819E819A83898373
S113194089819A810197F1F79A838983CE01895B12
S11319509F4F61E020E030E040E050E00E94D70279
S1131960FE01E95BFF4F8081893431F40E94A708AE
S113197068961FAE689721C0FE01E95BFF4F808126
S1131980833539F40E94A70883E068968FAF68977F
S113199014C0FE01E95BFF4F8081853439F40E9455
S11319A0A708E1E06896EFAF689707C081E00E945E
S11319B07F02882309F458CFD7CD68968FAD6897F6
S11319C0C95ADF4F0FB6F894DEBF0FBECDBFCF911B
S11319D0DF911F910F910895DF93CF93CDB7DEB7B9
S11319E06C970FB6F894DEBF0FBECDBF988F8F8B68
S11319F07A8F698F5C8F4B8F89E48F878F89988D5D
S1131A00892F9927888B8F89898B898D9A8D892F26
S1131A1099278A8B898D8B8B8B8D9C8D892F990F20
S1131A20990B8C8B8B8D8D8BCE010F9663EC0E9462
S1131A3081038823C9F780E090E0A8E4B2E48B87AF
S1131A409C87AD87BE876B857C858D859E8520E0D0
S1131A5030E44CE155E40E946810DC01CB018F8333
S1131A609887A987BA876F81788589859A8520E0C8
S1131A7030E040E85FE30E94BF0F88232CF481E04C
S1131A8090E09E838D833FC06F81788589859A8598
S1131A9020E03FEF4FE757E40E94641018164CF51E
S1131AA06B857C858D859E8520E030E040E251E4A5
S1131AB00E946810DC01CB01BC01CD010E94C30F60
S1131AC0DC01CB019E838D830FC08AEF90E09C8361
S1131AD08B838B819C810197F1F79C838B838D8110
S1131AE09E8101979E838D838D819E81009769F7E6
S1131AF014C06F81788589859A850E94C30FDC01A3
S1131B00CB019E838D838D819E819A838983898174
S1131B109A810197F1F79A83898381E090E06C962A
S1131B200FB6F894DEBF0FBECDBFCF91DF910895FD
S1131B30DF93CF93CDB7DEB780916101882309F499
S1131B404DC080915D0190915E01A0915F01B091C3
S1131B5060010196A11DB11D80935D0190935E010A
S1131B60A0935F01B093600180915D0190915E014B
S1131B70A0915F01B091600180392FE5920721E0C7
S1131B80A20720E0B20750F180915D0190915E01BF
S1131B90A0915F01B0916001805D9740A040B0408A
S1131BA080392FE5920721E0A20720E0B20740F038
S1131BB0A1E3B0E0E1E3F0E080818E7F8C93FFCF7E
S1131BC081E080936201E4E3F0E08FEF8083A1E39E
S1131BD0B0E0E1E3F0E0808181608C93CF91DF910C
S1131BE00895DF93CF93CDB7DEB710925D011092C5
S1131BF05E0110925F01109260011092620181E017
S1131C0080936101CF91DF910895DF93CF93CDB796
S1131C10DEB784E00E942F020E94480EE1E2F0E069
S1131C201082E2E2F0E08FEF8083A4E2B0E0E4E22D
S1131C30F0E080818E7F8C93A5E2B0E0E5E2F0E0F5
S1131C4080818E7F8C93ADE2B0E0EDE2F0E08081A4
S1131C508F7E8C93AEE2B0E0EEE2F0E080818F7E86
S1131C608C93ADE2B0E0EDE2F0E080818B7F8C9369
S1131C70AEE2B0E0EEE2F0E080818B7F8C93E3E3B0
S1131C80F0E08FEF80830E94F10DCF91DF910895F2
S1131C90DF93CF93CDB7DEB7E0E8F0E01082E1E860
S1131CA0F0E089E08083E9E8F0E087E28083E8E817
S1131CB0F0E080E18083EFE6F0E082E08083AFE54E
S1131CC0B0E0EFE5F0E0808180688C93CF91DF9104
S1131CD008951F920F920FB60F9200905B000F921F
S1131CE011242F933F934F935F936F937F938F931D
S1131CF09F93AF93BF93EF93FF93DF93CF93CDB7AE
S1131D00DEB70E9491020E94980D0E946305CF9154
S1131D10DF91FF91EF91BF91AF919F918F917F914F
S1131D206F915F914F913F912F910F9000925B00C3
S1131D300F900FBE0F901F9018951F920F920FB621
S1131D400F921124DF93CF93CDB7DEB7CF91DF91FC
S1131D500F900FBE0F901F9018951F920F920FB601
S1131D600F9200905B000F9211248F939F93AF9377
S1131D70BF93EF93FF93DF93CF93CDB7DEB78091FB
S1131D8063018823D9F080916301815080936301BA
S1131D90A6ECB0E080916401882F90E0FC01E55945
S1131DA0FE4F80818C93809164018F5F80936401E6
S1131DB080916401803411F410926401CF91DF9119
S1131DC0FF91EF91BF91AF919F918F910F900092EE
S1131DD05B000F900FBE0F901F9018951F920F92EB
S1131DE00FB60F9200905B000F9211242F938F93E4
S1131DF09F93EF93FF93DF93CF930F92CDB7DEB70B
S1131E00E0ECF0E0808189838981882F90E08C71F7
S1131E1090700097D9F480916501882F90E0E6ECEA
S1131E20F0E02081FC01E555FE4F2083809165019F
S1131E308F5F8093650180916501803411F4109265
S1131E406501809166018F5F809366010F90CF9149
S1131E50DF91FF91EF919F918F912F910F900092BD
S1131E605B000F900FBE0F901F9018951F920F925A
S1131E700FB60F9200905B000F9211248F939F93E3
S1131E80AF93BF93EF93FF93DF93CF93CDB7DEB7B9
S1131E90809167018823D9F08091670181508093F4
S1131EA06701AEECB0E080916801882F90E0FC01FE
S1131EB0E551FE4F80818C93809168018F5F809300
S1131EC0680180916801803411F410926801CF9107
S1131ED0DF91FF91EF91BF91AF919F918F910F90FF
S1131EE000925B000F900FBE0F901F9018951F92E9
S1131EF00F920FB60F9200905B000F9211242F9354
S1131F008F939F93EF93FF93DF93CF930F92CDB76C
S1131F10DEB7E8ECF0E0808189838981882F90E046
S1131F208C7190700097D9F480916901882F90E0AA
S1131F30EEECF0E02081FC01E55DFD4F2083809113
S1131F4069018F5F8093690180916901803411F484
S1131F501092690180916A018F5F80936A010F90EA
S1131F60CF91DF91FF91EF919F918F912F910F90DE
S1131F7000925B000F900FBE0F901F9018952FD00A
S1131F8008F481E008957FD088F09F5790F0B92F2E
S1131F909927B751A0F0D1F0660F771F881F991FBA
S1131FA01AF0BA95C9F712C0B13081F086D0B1E009
S1131FB0089583C0672F782F8827B85F39F0B93F19
S1131FC0CCF3869577956795B395D9F73EF49095BC
S1131FD08095709561957F4F8F4F9F4F0895990F0E
S1131FE00008550FAA0BE0E8FEEF16161706E807DF
S1131FF0F907C0F012161306E407F50798F0621B00
S1132000730B840B950B39F40A2661F0232B242BD4
S1132010252B21F408950A2609F4A140A6958FEFF3
S1132020811D811D089597F99F6780E870E060E045
S113203008959FEF80EC089500240A94161617065D
S113204018060906089500240A94121613061406A5
S113205005060895092E0394000C11F4882352F008
S1132060BB0F40F4BF2B11F460FF04C06F5F7F4FC0
S11320708F4F9F4F089557FD9058440F551F59F0A7
S11320805F3F71F04795880F97FB991F61F09F3F61
S113209079F087950895121613061406551FF2CF8A
S11320A04695F1DF08C0161617061806991FF1CFDA
S11320B086957105610508940895E894BB27662701
S11320C07727CB0197F908958ADF08F48FEF0895F5
S11320D00BD0C0CFB1DF28F0B6DF18F0952309F09C
S11320E0A2CFA7CF1124EACFC6DFA0F3959FD1F3E7
S11320F0950F50E0551F629FF001729FBB27F00DB2
S1132100B11D639FAA27F00DB11DAA1F649F662706
S1132110B00DA11D661F829F2227B00DA11D621F55
S1132120739FB00DA11D621F839FA00D611D221F0F
S1132130749F3327A00D611D231F849F600D211DF3
S1132140822F762F6A2F11249F5750408AF0E1F096
S113215088234AF0EE0FFF1FBB1F661F771F881FDF
S113216091505040A9F79E3F510570F05CCFA6CF27
S11321705F3FECF3983EDCF3869577956795B795CA
S1132180F795E7959F5FC1F7FE2B880F911D9695F4
S1132190879597F908950F931F93CF93DF93689FC3
S11321A08001699F100D789F100D1124C8010E94B1
S11321B0E710EC01009729F060E070E0A8010E94AC
S11321C0EC11CE01DF91CF911F910F910895CF9320
S11321D0DF93BC018230910510F462E070E0A091BD
S11321E06D02B0916E02ED01E0E0F0E040E050E0FD
S11321F021C0888199818617970769F48A819B8118
S1132200309719F09383828304C090936E02809375
S11322106D02FE0134C06817790738F44115510581
S113222019F08417950708F4AC01FE018A819B819B
S11322309C01E9012097E9F641155105A9F1CA016C
S1132240861B970B049708F4BA01E0E0F0E02AC07B
S11322508D919C91119784179507F9F4641775076C
S113226081F412968D919C911397309719F0938372
S1132270828304C090936E0280936D02FD013296B6
S11322804FC0CA01861B970BFD01E80FF91F61932C
S1132290719302978D939C9343C0FD018281938136
S11322A09C01D9011097A1F680916B0290916C0268
S11322B0892B41F4809102019091030190936C0267
S11322C080936B0240910401509105014115510521
S11322D041F44DB75EB78091000190910101481B14
S11322E0590B20916B0230916C0224173507B0F41E
S11322F0CA01821B930B8617970780F0AB014E5FD0
S11323005F4F8417950750F0420F531F50936C0290
S113231040936B02F9016193719302C0E0E0F0E035
S1132320CF01DF91CF910895CF93DF93009709F404
S113233050C0EC0122971B821A82A0916D02B091C9
S11323406E02109709F140E050E0AC17BD0708F1A8
S1132350BB83AA83FE0121913191E20FF31FAE17D3
S1132360BF0779F48D919C911197280F391F2E5F27
S11323703F4F3983288312968D919C9113979B83A9
S11323808A834115510571F4D0936E02C0936D0296
S113239020C012968D919C911397AD01009711F076
S11323A0DC01D3CFFA01D383C28321913191E20FAF
S11323B0F31FCE17DF0769F488819981280F391F2D
S11323C02E5F3F4FFA01318320838A819B8193835F
S11323D08283DF91CF910895DC0101C06D93415058
S10D23E05040E0F70895F894FFCF91
S10923EA20006F02000058
S9030000FC
