S01000006E6F7669323031342E7372656391
S11300000C944A000C9469000C9469000C946900E7
S11300100C9469000C9469000C9469000C946900B8
S11300200C9469000C9469000C9469000C946900A8
S11300300C94C9050C9469000C9469000C94690033
S11300400C9469000C9469000C946B000C94690086
S11300500C9469000C944E060C9469000C940D06E3
S11300600C9469000C9469000C9469000C94690068
S11300700C94FD050C9469000C9469000C946900BF
S11300800C94D7060C9469000C9496060C946900A1
S11300900C94690011241FBECFEFD0E1DEBFCDBFA9
S11300A011E0A0E0B1E0EAEAF2E100E00BBF02C037
S11300B007900D92A630B107D9F712E0A6E0B1E09F
S11300C001C01D92A037B107E1F70E941A040C94F5
S11300D053090C9400001F920F920FB60F920090D8
S11300E05B000F9211242F933F934F935F938F9351
S11300F09F93AF93BF93EF93FF93DF93CF9300D07E
S113010000D0CDB7DEB7EDEEF0E080818C831B82AA
S11301109CC0EDEEF0E08B818295807F8083EEEED3
S1130120F0E08081829586958770882F90E08170B9
S11301309070882309F46EC0EFEEF0E080E88083CD
S1130140AEEEB0E0EEEEF0E080818F7D8C93E2EFD6
S1130150F0E08081829586958770282FE3EFF0E0A8
S11301608081882F90E0880F991F880F991F880F2E
S1130170991F822B8A8319822AC08A81282F30E012
S113018081E090E0821B930B880F991F90958195D5
S11301909F4FFC01E55FFE4F408151818A81882F8A
S11301A090E00197FC01E15EFE4F8081282F30E052
S11301B08981882F90E0820F931FDA01A80FB91F5D
S11301C0EAEFF0E080818C9389818F5F8983898154
S11301D0883098F28A81882F90E00197FC01E15ED3
S11301E0FE4F80818F5F80838081853041F48A81D6
S11301F0882F90E00197FC01E15EFE4F10828A8116
S1130200882F90E00197FC01ED5CFE4F80818F5FA9
S113021080831FC0EEEEF0E08081829586958695FE
S11302208370882F90E081709070882359F0EFEEEE
S1130230F0E01082AEEEB0E0EEEEF0E080818F7B75
S11302408C9307C08B818F5F8B838B818F3008F4F5
S113025060CFEDEEF0E08C818083AAEDB0E0EAEDB2
S1130260F0E080818C930F900F900F900F90CF91BE
S1130270DF91FF91EF91BF91AF919F918F915F912A
S11302804F913F912F910F9000925B000F900FBE02
S11302900F901F901895DF93CF9300D0CDB7DEB7A2
S11302A0E8EDF0E081E080831A8232C0EDEEF0E008
S11302B08A818295807F8083EEEEF0E01082EFEEFB
S11302C0F0E01082E3EFF0E01082E2EFF0E0108261
S11302D0E1EFF0E01082E0EFF0E01082E7EFF0E011
S11302E01082E6EFF0E01082E5EFF0E01082E4EF38
S11302F0F0E01082198206C0EAEFF0E010828981F2
S11303008F5F898389818830B8F38A818F5F8A837C
S11303108A818F3058F2E8EDF0E082E08083E2EEEB
S1130320F0E081E08083E3EEF0E088E08083E4EEB7
S1130330F0E08EE58083E5EEF0E01082EBEDF0E096
S113034080EB8083EFEDF0E08FE78083EEEDF0E06B
S11303508FEF808378940F900F90CF91DF91089561
S1130360DF93CF9300D000D00F92CDB7DEB79C833C
S11303708B83EDEEF0E080818983E9EDF0E080810C
S113038082958F70882F90E0817090708823A9F7F0
S1130390E9EDF0E08081869586958695882F90E03A
S11303A081709070882349F71A823FC0EDEEF0E027
S11303B08A818295807F8083EFEEF0E08081829550
S11303C0869586958370882369F5EFEEF0E08FE0DB
S11303D08083E3EFF0E08B819C8190709695879504
S11303E096958795969587958083E2EFF0E08B81CB
S11303F08295880F807E8083E6EFF0E080EE808334
S1130400E7EFF0E08FEF8083AFEEB0E0EFEEF0E0E7
S1130410808180688C93EDEEF0E08981808381E0B7
S11304208D830CC08A818F5F8A838A818F3008F420
S1130430BDCFEDEEF0E0898180831D828D810F9028
S11304400F900F900F900F90CF91DF9108950F931D
S11304501F93DF93CF9300D0CDB7DEB78A830E947A
S11304604B010E948705198237C08981882F90E04B
S113047001960E94B0018981882F90E0880F991F0E
S11304808C01055F1E4F85E090E061E070E00E9402
S11304902B08F801918380838981482F50E089815A
S11304A0282F30E08981882F90E0FC01ED5CFE4F1D
S11304B01082FC01ED5CFE4F8081F901E75DFE4F87
S11304C08083F901E75DFE4F8081FA01E15EFE4F12
S11304D0808389818F5F898399818A81981728F223
S11304E00F900F90CF91DF911F910F910895DF939B
S11304F0CF93CDB7DEB780910A01882399F080911C
S1130500060190910701A0910801B091090101969B
S1130510A11DB11D8093060190930701A0930801CA
S1130520B0930901CF91DF910895DF93CF9300D069
S1130530CDB7DEB710923E0173C110923D0166C182
S113054080913E01282F30E03A83298389819A8162
S11305508530910509F4B2C029813A8126303105EC
S1130560F4F489819A818230910509F458C0298173
S11305703A812330310534F489819A81813091059F
S113058099F13FC129813A812330310509F462C0D0
S113059089819A818430910509F477C032C1298117
S11305A03A812830310509F4DDC089819A81893086
S11305B091056CF429813A812630310509F49BC0F8
S11305C089819A818730910509F4B0C01AC12981C3
S11305D03A812930310509F4DFC089819A818A3052
S11305E0910509F4F2C00DC180913E01282F30E03D
S11305F080913D01482F50E0E0E2F0E08081829557
S11306008F70682F6170C901880F991F820F931F23
S1130610840F951FFC01E15CFE4F6083F2C0809162
S11306203E01282F30E080913D01482F50E0E0E268
S1130630F0E08081682F661F6627661FC901880F56
S1130640991F820F931F840F951FFC01E15CFE4FDD
S11306506083D7C080913E01282F30E080913D0116
S1130660482F50E0ECE2F0E0808182958F70682F93
S11306706170C901880F991F820F931F840F951F02
S1130680FC01E15CFE4F6083BCC080913E01282FD9
S113069030E080913D01482F50E0E3E2F0E08081BA
S11306A0682F6170C901880F991F820F931F840FEF
S11306B0951FFC01E15CFE4F6083A3C080913E0165
S11306C0282F30E080913D01482F50E0E0E2F0E037
S11306D080818295869586958370682F6170C901A3
S11306E0880F991F820F931F840F951FFC01E15CF3
S11306F0FE4F608386C080913E01282F30E08091B8
S11307003D01482F50E0ECE2F0E08081869586952B
S1130710682F6170C901880F991F820F931F840F7E
S1130720951FFC01E15CFE4F60836BC080913E012C
S1130730282F30E080913D01482F50E0ECE2F0E0BA
S11307408081829586958770682F6170C901880FB2
S1130750991F820F931F840F951FFC01E15CFE4FCC
S113076060834FC080913E01282F30E080913D018D
S1130770482F50E0E0E2F0E080818695682F6170B8
S1130780C901880F991F820F931F840F951FFC01C5
S1130790E15CFE4F608335C080913E01282F30E03C
S11307A080913D01482F50E0E0E2F0E08081682F25
S11307B06170C901880F991F820F931F840F951FC1
S11307C0FC01E15CFE4F60831CC080913E01282F38
S11307D030E080913D01482F50E0ECE2F0E0808170
S11307E08295869586958370682F6170C901880FFC
S11307F0991F820F931F840F951FFC01E15CFE4F2C
S1130800608380913D018F5F80933D0180913D0124
S1130810833008F495CE80913E018F5F80933E0132
S113082080913E018A3008F488CE0F900F90CF91CA
S1130830DF910895DF93CF93CDB7DEB76C970FB6F2
S1130840F894DEBF0FBECDBF80E090E0A8ECB2E428
S1130850898F9A8FAB8FBC8F698D7A8D8B8D9C8D90
S113086020E030E44CE155E40E94C807DC01CB01F0
S11308708D8B9E8BAF8BB88F6D897E898F89988D78
S113088020E030E040E85FE30E941F0788232CF457
S113089081E090E09C8B8B8B3FC06D897E898F8932
S11308A0988D20E03FEF4FE757E40E94C4071816E5
S11308B04CF5698D7A8D8B8D9C8D20E030E040E283
S11308C051E40E94C807DC01CB01BC01CD010E94A8
S11308D02307DC01CB019C8B8B8B0FC08AEF90E04C
S11308E09A8B898B89899A890197F1F79A8B898BDD
S11308F08B899C8901979C8B8B8B8B899C89009716
S113090069F714C06D897E898F89988D0E942307A9
S1130910DC01CB019C8B8B8B8B899C89988B8F877B
S11309208F8598890197F1F7988B8F870E945705D7
S113093080E090E8ABEBB4E48B879C87AD87BE87FF
S11309406B857C858D859E8520E030E44CE155E403
S11309500E94C807DC01CB018F839887A987BA87D7
S11309606F81788589859A8520E030E040E85FE3EF
S11309700E941F0788232CF481E090E09E838D83DE
S11309803FC06F81788589859A8520E03FEF4FE7E6
S113099057E40E94C40718164CF56B857C858D8539
S11309A09E8520E030E040E251E40E94C807DC016B
S11309B0CB01BC01CD010E942307DC01CB019E8346
S11309C08D830FC08AEF90E09C838B838B819C8105
S11309D00197F1F79C838B838D819E8101979E8380
S11309E08D838D819E81009769F714C06F8178850E
S11309F089859A850E942307DC01CB019E838D8320
S1130A008D819E819A83898389819A810197F1F7E7
S1130A109A838983FFCFDF93CF93CDB7DEB78091DD
S1130A206101882359F180915D0190915E01A0914B
S1130A305F01B09160010196A11DB11D80935D011C
S1130A4090935E01A0935F01B093600180915D017A
S1130A5090915E01A0915F01B091600180392FE512
S1130A60920721E0A20720E0B20740F081E08093E2
S1130A706201E4E3F0E08FEF8083FFCFCF91DF9159
S1130A800895DF93CF93CDB7DEB710925D01109236
S1130A905E0110925F01109260011092620181E088
S1130AA08093610110926301CF91DF910895DF93E8
S1130AB0CF93CDB7DEB784E00E9427020E9487055A
S1130AC00E94A805E1E2F0E01082E2E2F0E08FEF9C
S1130AD08083E4E2F0E01082E5E2F0E08FEF8083CF
S1130AE0EDE2F0E01082EEE2F0E08FEF8083E3E3EA
S1130AF0F0E08FEF8083E0E3F0E01082E1E3F0E0E8
S1130B008FEF80830E944105CF91DF910895DF9399
S1130B10CF93CDB7DEB7E0E8F0E01082E1E8F0E093
S1130B2089E08083E9E8F0E087E28083E8E8F0E0A8
S1130B3080E18083EFE6F0E082E08083AFE5B0E01F
S1130B40EFE5F0E0808180688C93CF91DF91089588
S1130B50DF93CF93CDB7DEB7E0E9F0E01082E1E9AF
S1130B60F0E089E08083E9E9F0E08BE28083E8E962
S1130B70F0E083E38083E1E7F0E082E08083AFE5A7
S1130B80B0E0EFE5F0E0808180688C93CF91DF9155
S1130B9008951F920F920FB60F9200905B000F9270
S1130BA011242F933F934F935F936F937F938F936E
S1130BB09F93AF93BF93EF93FF93DF93CF93CDB7FF
S1130BC0DEB70E9477020E940B050E949502CF9126
S1130BD0DF91FF91EF91BF91AF919F918F917F91A1
S1130BE06F915F914F913F912F910F9000925B0015
S1130BF00F900FBE0F901F9018951F920F920FB673
S1130C000F921124DF93CF93CDB7DEB7CF91DF914D
S1130C100F900FBE0F901F9018951F920F920FB652
S1130C200F9200905B000F9211248F939F93AF93C8
S1130C30BF93EF93FF93DF93CF93CDB7DEB780914C
S1130C4064018823D9F08091640181508093640108
S1130C50A6ECB0E080916501882F90E0FC01E45996
S1130C60FE4F80818C93809165018F5F8093650135
S1130C7080916501803411F410926501CF91DF9168
S1130C80FF91EF91BF91AF919F918F910F9000923F
S1130C905B000F900FBE0F901F9018951F920F923C
S1130CA00FB60F9200905B000F9211242F938F9335
S1130CB09F93EF93FF93DF93CF930F92CDB7DEB75C
S1130CC0E0ECF0E0808189838981882F90E08C7149
S1130CD090700097D9F480916601882F90E0E6EC3B
S1130CE0F0E02081FC01E455FE4F208380916601F1
S1130CF08F5F8093660180916601803411F41092B5
S1130D006601809167018F5F809367010F90CF9197
S1130D10DF91FF91EF919F918F912F910F9000920E
S1130D205B000F900FBE0F901F9018951F920F92AB
S1130D300FB60F9200905B000F9211248F939F9334
S1130D40AF93BF93EF93FF93DF93CF93CDB7DEB70A
S1130D50809168018823D9F0809168018150809343
S1130D606801AEECB0E080916901882F90E0FC014D
S1130D70E451FE4F80818C93809169018F5F809351
S1130D80690180916901803411F410926901CF9155
S1130D90DF91FF91EF91BF91AF919F918F910F9050
S1130DA000925B000F900FBE0F901F9018951F923A
S1130DB00F920FB60F9200905B000F9211242F93A5
S1130DC08F939F93EF93FF93DF93CF930F92CDB7BE
S1130DD0DEB7E8ECF0E0808189838981882F90E098
S1130DE08C7190700097D9F480916A01882F90E0FB
S1130DF0EEECF0E02081FC01E45DFD4F2083809166
S1130E006A018F5F80936A0180916A01803411F4D2
S1130E1010926A0180916B018F5F80936B010F9038
S1130E20CF91DF91FF91EF919F918F912F910F902F
S1130E3000925B000F900FBE0F901F9018952FD05B
S1130E4008F481E008957FD088F09F5790F0B92F7F
S1130E509927B751A0F0D1F0660F771F881F991F0B
S1130E601AF0BA95C9F712C0B13081F086D0B1E05A
S1130E70089583C0672F782F8827B85F39F0B93F6A
S1130E80CCF3869577956795B395D9F73EF490950D
S1130E908095709561957F4F8F4F9F4F0895990F5F
S1130EA00008550FAA0BE0E8FEEF16161706E80730
S1130EB0F907C0F012161306E407F50798F0621B51
S1130EC0730B840B950B39F40A2661F0232B242B26
S1130ED0252B21F408950A2609F4A140A6958FEF45
S1130EE0811D811D089597F99F6780E870E060E097
S1130EF008959FEF80EC089500240A9416161706AF
S1130F0018060906089500240A94121613061406F6
S1130F1005060895092E0394000C11F4882352F059
S1130F20BB0F40F4BF2B11F460FF04C06F5F7F4F11
S1130F308F4F9F4F089557FD9058440F551F59F0F8
S1130F405F3F71F04795880F97FB991F61F09F3FB2
S1130F5079F087950895121613061406551FF2CFDB
S1130F604695F1DF08C0161617061806991FF1CF2B
S1130F7086957105610508940895E894BB27662752
S1130F807727CB0197F908958ADF08F48FEF089546
S1130F900BD0C0CFB1DF28F0B6DF18F0952309F0ED
S1130FA0A2CFA7CF1124EACFC6DFA0F3959FD1F338
S1130FB0950F50E0551F629FF001729FBB27F00D03
S1130FC0B11D639FAA27F00DB11DAA1F649F662758
S1130FD0B00DA11D661F829F2227B00DA11D621FA7
S1130FE0739FB00DA11D621F839FA00D611D221F61
S1130FF0749F3327A00D611D231F849F600D211D45
S1131000822F762F6A2F11249F5750408AF0E1F0E7
S113101088234AF0EE0FFF1FBB1F661F771F881F30
S113102091505040A9F79E3F510570F05CCFA6CF78
S11310305F3FECF3983EDCF3869577956795B7951B
S1131040F795E7959F5FC1F7FE2B880F911D969545
S1131050879597F908950F931F93CF93DF93689F14
S11310608001699F100D789F100D1124C8010E9402
S11310704708EC01009729F060E070E0A8010E94A5
S11310804C09CE01DF91CF911F910F910895CF9319
S1131090DF93BC018230910510F462E070E0A0910E
S11310A06E02B0916F02ED01E0E0F0E040E050E04C
S11310B021C0888199818617970769F48A819B8169
S11310C0309719F09383828304C090936F028093C6
S11310D06E02FE0134C06817790738F441155105D2
S11310E019F08417950708F4AC01FE018A819B81ED
S11310F09C01E9012097E9F641155105A9F1CA01BE
S1131100861B970B049708F4BA01E0E0F0E02AC0CC
S11311108D919C91119784179507F9F464177507BD
S113112081F412968D919C911397309719F09383C3
S1131130828304C090936F0280936E02FD01329605
S11311404FC0CA01861B970BFD01E80FF91F61937D
S1131150719302978D939C9343C0FD018281938187
S11311609C01D9011097A1F680916C0290916D02B7
S1131170892B41F4809102019091030190936D02B7
S113118080936C0240910401509105014115510571
S113119041F44DB75EB78091000190910101481B65
S11311A0590B20916C0230916D0224173507B0F46D
S11311B0CA01821B930B8617970780F0AB014E5F21
S11311C05F4F8417950750F0420F531F50936D02E1
S11311D040936C02F9016193719302C0E0E0F0E086
S11311E0CF01DF91CF910895CF93DF93009709F456
S11311F050C0EC0122971B821A82A0916E02B0911A
S11312006F02109709F140E050E0AC17BD0708F1F8
S1131210BB83AA83FE0121913191E20FF31FAE1724
S1131220BF0779F48D919C911197280F391F2E5F78
S11312303F4F3983288312968D919C9113979B83FA
S11312408A834115510571F4D0936F02C0936E02E5
S113125020C012968D919C911397AD01009711F0C7
S1131260DC01D3CFFA01D383C28321913191E20F00
S1131270F31FCE17DF0769F488819981280F391F7E
S11312802E5F3F4FFA01318320838A819B819383B0
S11312908283DF91CF910895DC0101C06D934150A9
S10D12A05040E0F70895F894FFCFE2
S10912AA200070020000A8
S9030000FC
